:0300000002091ED4
:0C091E00787FE4F6D8FD75810E02082DEC
:0F090F00424B484E004C4F56452048555354001C
:1008C200EF1FAA0670011E4A6013E4FCFDC3ED94FB
:0D08D20050EC940050EA0DBD00010C80F0C8
:0108DF0022F6
:070880007E001208C27F3068
:10088700C2B5C2B48FA0C2B6D2B6D3EF94027480F9
:0A08970094807F147E001208C22234
:1008FE00C2B5D2B48FA0C2B6D2B67F017E000208B6
:01090E00C226
:060858008B0B8A0C890DD8
:10085E00E4F50EAB0BAA0CA90D850E827583001262
:10086E000800FFFD3395E04D60071208FE050E806F
:01087E00E297
:01087F002256
:0608A1008B088A09890A98
:1008A700EF640170047F8080027FC0EF2D14FF1278
:0B08B7000887AB08AA09A90A0208582C
:1008E0007F301208877F051208807F011208807F01
:0E08F000381208877F011208877F0C020887E4
:10082D001208E07BFF7A09790F7D067F011208A17E
:10083D007BFF7A0979147D047F021208A17FF47E73
:0B084D00011208C27F1812088780F219
:10080000BB010CE58229F582E5833AF583E02250AD
:1008100006E92582F8E622BBFE06E92582F8E222F7
:0D082000E58229F582E5833AF583E4932211
:00000001FF
