:03000000020800F3
:0C080000787FE4F6D8FD758120020847DF
:1009E200020A0000021A00000208000A0A10C0F9F6
:0809F200A4B0999282F88090F4
:1009C300EF1FAC0670011E4C6014758901758CFC19
:0E09D300758A18D28C308DFDC28DC28C80E2E8
:0109E10022F3
:08099D00F8E6F5807F0A7E00F8
:1009A500EF1FAA0670011E4A6013E4FCFDC3ED9417
:0D09B50053EC940050EA0DBD00010C80F0E1
:0109C2002212
:03000300020A13DB
:0D0A1300C0E0050BE50B7002050AD0E032D3
:03001B0002096770
:10096700C0E0C0D0051BE51B7002051A758DFC752C
:100977008B18D28EC3E51B94E8E51A9403401285C1
:100987000A0C850B0D750A00750B00751A00751B8F
:0609970000D0D0D0E032D8
:04088C00AB07AA0606
:100890007C037DE81209128F1C7C037DE8AF03AE58
:1008A000021209127E007F64CFCDCFCECCCE1209CA
:1008B000128F1D7C007D64AF03AE021209127E0010
:1008C0007F0ACFCDCFCECCCE1209128F1EAE02AF93
:1008D000037C007D0A120912AB05900000C2A074CF
:1008E00010251C12099DD2A0C2A17410251D120949
:1008F0009DD2A1C2A27410251E12099DD2A2C2A32C
:1009000074102B12099DD2A3A3E582641445837051
:01091000CC1A
:0109110022C3
:1009FB00758910D2B2D2A8D2ABD288D28ED2AFAF79
:080A0B000DAE0C12088C80F7FF
:10080C000209FBE493A3F8E493A34003F68001F2FE
:10081C0008DFF48029E493A3F85407240CC8C333ED
:10082C00C4540F4420C8834004F456800146F6DFBC
:10083C00E4800B01020408102040809009E2E47E61
:10084C00019360BCA3FF543F30E509541FFEE493B1
:10085C00A360010ECF54C025E060A840B8E493A378
:10086C00FAE493A3F8E493A3C8C582C8CAC583CAA3
:10087C00F0A3C8C582C8CAC583CADFE9DEE780BE5B
:0109FA0000FC
:10091200BC000BBE0029EF8DF084FFADF022E4CCC9
:10092200F875F008EF2FFFEE33FEEC33FCEE9DEC92
:10093200984005FCEE9DFE0FD5F0E9E4CEFD22EDD8
:10094200F8F5F0EE8420D21CFEADF075F008EF2F22
:10095200FFED33FD4007985006D5F0F222C398FD13
:050962000FD5F0EA22B0
:00000001FF
