:03000000020800F3
:0C080000787FE4F6D8FD75810B020847F4
:04092C0002080000BD
:10090E00EF1FAA0670011E4A6013E4FCFDC3ED94AE
:0D091E0050EC940050EA0DBD00010C80F07B
:01092B0022A9
:1008EA00D290C29520901C7FC87E0012090E2090DB
:1008FA00120509E50970020508640445087004F543
:04090A0008F50922C1
:10088C001208EAE50945087004F5A080F3E509644F
:10089C00014508700575A0FF80E6E509640245086E
:0F08AC00700575A0AA80D9E5096403450870D1CD
:1008BB00F50AF50BC3E50B9408E50A940050C2AF9B
:1008CB000BA8077401088002C333D8FCF5A07FC8BE
:0F08DB007E0012090E050BE50B70D9050A80D5BA
:10080C0002088CE493A3F8E493A34003F68001F26E
:10081C0008DFF48029E493A3F85407240CC8C333ED
:10082C00C4540F4420C8834004F456800146F6DFBC
:10083C00E4800B010204081020408090092CE47E17
:10084C00019360BCA3FF543F30E509541FFEE493B1
:10085C00A360010ECF54C025E060A840B8E493A378
:10086C00FAE493A3F8E493A3C8C582C8CAC583CAA3
:10087C00F0A3C8C582C8CAC583CADFE9DEE780BE5B
:0109300000C6
:00000001FF
