:030000000208F201
:0C08F200787FE4F6D8FD75810E02087EC8
:0908FE0048656C6C6F2041450057
:080907008F993099FDC299227D
:060846008B088A09890AF3
:10084C001208DD8E0B8F0CE4FDFCC3ED950CE50B53
:10085C006480F8EC6480985018AB08AA09A90A8D3A
:10086C00828C83120800FF1209070DBD00010C8059
:01087C00D9A2
:01087D002258
:1008A000EF1FAC0670011E4C6014758901758CFC3D
:0E08B000758A18D28C308DFDC28DC28C80E20C
:0108BE002217
:1008BF00EF1FAA0670011E4A6013E4FCFDC3ED94FE
:0D08CF0053EC940050EA0DBD00010C80F0C8
:0108DC0022F9
:10087E00758920758DFD759850D28E7BFF7A08791B
:10088E00FE1208467F0A1209077FE87E031208BF90
:02089E0080E9EF
:10080000BB010CE58229F582E5833AF583E02250AD
:1008100006E92582F8E622BBFE06E92582F8E222F7
:0D082000E58229F582E5833AF583E4932211
:1008DD00E4FFFE12082D600C0FEF70010E09E97098
:0508ED00F20A80EF2279
:10082D00BB010689828A83E0225002E722BBFE02C9
:09083D00E32289828A83E49322FC
:00000001FF
