:03000000020930C2
:0C093000787FE4F6D8FD7581100208B64F
:0E09220048656C6C6F0054657374206F6B0039
:10089700EF1FAC0670011E4C6014758901758CFC46
:0E08A700758A18D28C308DFDC28DC28C80E215
:0108B5002220
:1008D500EF1FAA0670011E4A6013E4FCFDC3ED94E8
:0D08E50053EC940050EA0DBD00010C80F0B2
:0108F20022E3
:070855007E001208D57F3080
:10085C00C2A1C2A08F80C2A2D2A2D3EF9402748094
:0A086C0094807F147E001208D5224C
:10091100C2A1D2A08F80C2A2D2A27F017E00020812
:01092100D500
:06082D008B0B8A0C890D03
:10083300E4F50EAB0BAA0CA90D850E82758300128D
:100843000800FFFD3395E04D6007120911050E8086
:01085300E2C2
:010854002281
:060876008B088A09890AC3
:10087C00EF640170047F8080027FC0EF2D14FF12A3
:0B088C00085CAB08AA09A90A02082DAD
:1008F3007F3012085C7F051208557F011208557F6F
:0E0903003812085C7F0112085C7F0C02085C51
:1008B6001208F37BFF7A0979227D027F01120876FE
:0F08C6007BFF7A0979287D027F0212087680FE77
:10080000BB010CE58229F582E5833AF583E02250AD
:1008100006E92582F8E622BBFE06E92582F8E222F7
:0D082000E58229F582E5833AF583E4932211
:00000001FF
