:0300000002087B78
:0C087B00787FE4F6D8FD75810702085F65
:10084000EF1FAC0670011E4C6014758901758CFC9D
:0F085000758A18D28C308DFDC28DC28C80E22249
:10085F00D2A8D2AFD288E4F5A07FF47E011208406F
:0C086F0075A0FF7FF47E0112084080EAB3
:03000300020800F0
:10080000C0E0C0D075D000C002C004C005C006C0A2
:0108100007E0
:100811007F107E27E4FDFCC290EF1FAA0670011E27
:100821004A70F6D2900DBD00010CED64054C70E7E5
:0F083100D007D006D005D004D002D0D0D0E0320E
:00000001FF
