:03000000020D4CA2
:0C0D4C00787FE4F6D8FD758131020BEAD7
:100D2100434F554E54455220494E203830353100FD
:0A0D3100436F756E743D00256400E9
:100CE500EF1FAA0670011E4A6013E4FCFDC3ED94D4
:0D0CF50050EC940050EA0DBD00010C80F0A1
:010D020022CE
:070CA3007E00120CE57F301A
:100CAA00C295C2948FA0C296D296D3EF9402748052
:0A0CBA0094807F147E00120CE522E6
:100D3B00C295D2948FA0C296D2967F017E00020CF0
:010D4B00E5C2
:060C54008B0B8A0C890DD8
:100C5A00E4F50EAB0BAA0CA90D850E827583001262
:100C6A000B5CFFFD3395E04D6007120D3B050E80CE
:010C7A00E297
:010C7B002256
:060CC4008B088A09890A71
:100CCA00EF640170047F8080027FC0EF2D14FF1251
:0B0CDA000CAAAB08AA09A90A020C54DE
:100D03007F30120CAA7F05120CA37F01120CA37F64
:0E0D130038120CAA7F01120CAA7F0C020CAA47
:100BEA00758960E4F58DD2B5D28E120D037BFF7A3A
:100BFA000D79217D017F01120CC47BFF7A0D7931B9
:100C0A007D017F02120CC4AF8B752C008F2DAF8D26
:100C1A007530008F31E5317F00FEEF252DF52FE588
:100C2A002C3EF52E750BFF750C0D750D38F50E85DE
:100C3A002F0F7B007A00792212085C7B007A0079F8
:0A0C4A00227D087F02120CC480BD59
:100B5C00BB010CE58229F582E5833AF583E022504E
:100B6C0006E92582F8E622BBFE06E92582F8E22298
:0D0B7C00E58229F582E5833AF583E49322B2
:10080000E517240BF8E60517227808300702780B65
:10081000E475F001120BB4020B892000EB7F2ED29D
:10082000008018EF540F2490D43440D4FF30040BD0
:10083000EF24BFB41A0050032461FFE518600215CD
:1008400018051BE51B7002051A30070D7808E475C2
:10085000F001120BB4EF020BA2020C7C7403D2075E
:100860008003E4C207F5178B088A09890AE4F518A2
:10087000F51AF51BE51860077F2012083B80F57517
:1008800019FFC201C200C202C203C205C206C208E9
:10089000120809FF700D3007057F0012084CAF1BCE
:1008A000AE1A22B4255FC2D5C204120809FF24D0B3
:1008B000B40A00501A75F00A781830D50508B6FF4A
:1008C0000106C6A426F620D5047002D20380D924DE
:1008D000CFB41A00EF5004C2E5D204020A4CD20190
:1008E00080C6D20080C0D20280BCD2D580BAD205E8
:1008F00080B47F2012083B2002077401B518004025
:10090000F1120800FF12083B020874D208D20680D8
:1009100095120800FB120800FA120800F94A4B7001
:1009200006791D7A0B7BFF20022EE518602A7E00D7
:100930008E82758300120B5C60060EEE651970F0F6
:10094000C2D5EBC0E0EAC0E0E9C0E0EE120A93D005
:10095000E0F9D0E0FAD0E0FB120B89FF60AAEBC00F
:10096000E0EAC0E0E9C0E012083BD0E02401F9D0A1
:10097000E03400FAD0E0FBE5190460DCD519D98039
:10098000877BFF7A0A798FD202809C791080027966
:1009900008C206C2088008D2D5790A8004790AC242
:1009A000D5E519047002F519E4FAFDFEFF120800FE
:1009B000FC7B08200113120800FD7B1030000A1296
:1009C0000800FE120800FF7B20EC3382D592D55040
:1009D00013C3E43000069FFFE49EFEE42001039D64
:1009E000FDE49CFCE4CBF8C201EC700CCFCECDCC86
:1009F000E824F8F870F38017C3EF33FFEE33FEED11
:100A000033FDEC33FCEB33FB994002FB0FD8E9EBF1
:100A1000300105F8D0E0C448B201C0E00AEC4D4E08
:100A20004F78207B0070C2EAB5190040BCC0E012CC
:100A30000A95D0F0D0E0200104C4C0E0C4B201C0E7
:100A4000F0120824D0F0D5F0EB020874120BC409A0
:100A50001153098B5808E24C08DE42098F4F099761
:0F0A60004409974908F743099D550981460981C3
:100A6F00450981470B3D5008E62D08EA2E090D2B4D
:100A7F0008EE23090B200B262A08A64800000905BB
:100A8F003F3F3F00790AA2D5200314300509B91062
:100A9F00020404B9080104A2D52006025001042063
:100AAF0002689202B518005034C0E07F203003195D
:100ABF007F30A20272067205500F120AECC202C2F8
:100ACF0006C205C2087F30800F300503E9C0E0126F
:100ADF00083B300503D0E0F9D0E0B518CC3005174E
:100AEF007F30B9100C12083B7F583004077F788095
:100AFF0003B9080312083B3002057F2D02083B7F24
:100B0F00202008F87F2B2006F322920280CF286E38
:100B1F00756C6C2900D2011208003001F8C20178FF
:100B2F001830D50108F60208A62D5043495812086F
:100B3F00002403B405004001E4900B389312082CF5
:0D0B4F00743A12082CD20375180402098BA9
:100B8900BB010689828A83E0225002E722BBFE026A
:090B9900E32289828A83E493229D
:100BA200BB010689828A83F0225002F722BBFE0132
:020BB200F3222C
:100BB400FAE6FB0808E6F925F0F618E6CA3AF62242
:100BC400D083D082F8E4937012740193700DA3A3C0
:100BD40093F8740193F5828883E4737402936860D4
:060BE400EFA3A3A380DFD4
:100C7C00EFB40A07740D120C87740A309811A899F6
:100C8C00B8130CC2983098FDA899C298B811F630D8
:070C9C0099FDC299F59922B0
:00000001FF
