:030000000208B73C
:0C08B700787FE4F6D8FD7581150208FE7C
:0C09D9000A08C0F9A4B0999282F880903E
:040998007F0A7E0054
:10099C00EF1FAC0670011E4C6014758901758CFC40
:0E09AC00758A18D28C308DFDC28DC28C80E20F
:0109BA00221A
:1009BB00EF1FAA0670011E4A6013E4FCFDC3ED9401
:0D09CB0053EC940050EA0DBD00010C80F0CB
:0109D80022FC
:0B09E600EF1FAC0670011E4C70F622E3
:10080000C2A0C2A1C2A2C2A3E4FBFAE4F512F5138E
:100810007C037DE8AF03AE0212094374082FF8E6AB
:10082000F580C2A0120998D2A07C037DE8AF03AE88
:10083000021209437E007F64CFCDCFCECCCE120909
:100840004374082FF8E6F580C2A1120998D2A17C62
:10085000007D64AF03AE021209437E007F0ACFCD54
:10086000CFCECCCE12094374082FF8E6F580C2A291
:10087000120998D2A27C007D0AAF03AE021209438E
:1008800074082DF8E6F580C2A3120998D2A30513C7
:10089000E51370020512C3940AE512940050030296
:1008A00008100BBB00010AEB64107003EA642760B8
:0708B0000302080B02080817
:1008C300020800E493A3F8E493A34003F68001F243
:1008D30008DFF48029E493A3F85407240CC8C33336
:1008E300C4540F4420C8834004F456800146F6DF05
:1008F300E4800B01020408102040809009D9E47EB3
:10090300019360BCA3FF543F30E509541FFEE493F9
:10091300A360010ECF54C025E060A840B8E493A3C0
:10092300FAE493A3F8E493A3C8C582C8CAC583CAEB
:10093300F0A3C8C582C8CAC583CADFE9DEE780BEA3
:0109E5000011
:10094300BC000BBE0029EF8DF084FFADF022E4CC98
:10095300F875F008EF2FFFEE33FEEC33FCEE9DEC61
:10096300984005FCEE9DFE0FD5F0E9E4CEFD22EDA7
:10097300F8F5F0EE8420D21CFEADF075F008EF2FF1
:10098300FFED33FD4007985006D5F0F222C398FDE2
:050993000FD5F0EA227F
:00000001FF
