:03000000020924CE
:0C092400787FE4F6D8FD75812502089765
:1008B800EF1FAC0670011E4C6014758901758CFC25
:0E08C800758A18D28C308DFDC28DC28C80E2F4
:0108D60022FF
:1008D700EF1FAA0670011E4A6013E4FCFDC3ED94E6
:0D08E70053EC940050EA0DBD00010C80F0B0
:0108F40022E1
:070855007E001208D77F307E
:10085C00C2A1C2A08F80C2A2D2A2D3EF9402748094
:0A086C0094807F147E001208D7224A
:10091300C2A1D2A08F80C2A2D2A27F017E00020810
:01092300D7FC
:06082D008B1F8A208921C7
:10083300E4F522AB1FAA20A9218522827583001229
:100843000800FFFD3395E04D600712091305228070
:01085300E2C2
:010854002281
:060876008B1C8A1D891E87
:10087C00EF640170047F8080027FC0EF2D14FF12A3
:0B088C00085CAB1CAA1DA91E02082D71
:1008F5007F3012085C7F051208557F011208557F6D
:0E0905003812085C7F0112085C7F0C02085C4F
:030023000209309F
:03093000309805F7
:05093300859923C29824
:01093800328C
:10089700758920758BE6758DE6759860D28E75A87B
:1008A700901208F57B007A0079087D017F01020824
:0108B70076CA
:10080000BB010CE58229F582E5833AF583E02250AD
:1008100006E92582F8E622BBFE06E92582F8E222F7
:0D082000E58229F582E5833AF583E4932211
:00000001FF
